:200000000C9471000C94680D0C94410D0C9499000C9499000C9499000C9499000C949900AF
:200020000C9499000C9499000C9499000C9499000C9499000C9499000C9499000C949900F8
:200040000C94F70C0C9499000C94B50D0C948F0D0C9499000C9499000C9499000C94990042
:200060000C9499000C94990005A84CCDB2D44EB93836A9020C50B9918688083CA6AAAA2A86
:20008000BE000000803F000000002300260029000000000800020100000304070000000058
:2000A0000000000000000000250028002B0000000000240027002A00040404040404040433
:2000C000020202020202030303030303010204081020408001020408102001020408102085
:2000E000E70D11241FBECFEFD8E0DEBFCDBF11E0A0E0B1E0EAE4F0E302C005900D92A834E6
:20010000B107D9F723E0A8E4B1E001C01D92A039B207E1F710E0C1E7D0E004C02197FE019A
:200120000E941118C037D107C9F70E94230E0C9423180C9400003FB7F8948091D40190918E
:20014000D501A091D601B091D70126B5A89B05C02F3F19F00196A11DB11D3FBFBA2FA92F6C
:20016000982F8827BC01CD01620F711D811D911D42E0660F771F881F991F4A95D1F7089563
:200180008F929F92AF92BF92CF92DF92EF92FF926B017C010E949B004B015C01C114D1041E
:2001A000E104F104B9F00E949B00681979098A099B09683E73408105910580F321E0C21A80
:2001C000D108E108F10888EE880E83E0981EA11CB11CE4CFFF90EF90DF90CF90BF90AF9098
:2001E0009F908F9008952FB7F8946091D0017091D1018091D2019091D3012FBF089580E940
:2002000091E008950895AF92BF92CF92DF92EF92FF920F931F93CF93DF936C017B018B0120
:20022000040F151FEB015E01AE18BF08C017D10759F06991D601ED91FC910190F081E02DBC
:20024000C6010995892B79F7C501DF91CF911F910F91FF90EF90DF90CF90BF90AF90089528
:20026000FC01538D448D252F30E0842F90E0821B930B541710F0CF96089501970895FC016F
:20028000918D828D981761F0A28DAE0FBF2FB11D5D968C91928D9F5F9F73928F90E008951C
:2002A0008FEF9FEF0895FC01918D828D981731F0828DE80FF11D858D90E008958FEF9FEF5C
:2002C0000895FC01918D228D892F90E0805C9F4F821B91098F739927089586EE92E00E94A7
:2002E000610121E0892B09F420E0822F089580E090E0892B29F00E946D0181110C940000BD
:200300000895FC01A48DA80FB92FB11DA35ABF4F2C91848D90E001968F739927848FA689C1
:20032000B7892C93A089B1898C91837080648C93938D848D981306C00288F389E02D808192
:200340008F7D80830895EF92FF920F931F93CF93DF93EC0181E0888F9B8D8C8D98131AC08C
:20036000E889F989808185FF15C09FB7F894EE89FF896083E889F98980818370806480839E
:200380009FBF81E090E0DF91CF911F910F91FF90EF900895F62E0B8D10E00F5F1F4F0F7359
:2003A0001127E02E8C8D8E110CC00FB607FCFACFE889F989808185FFF5CFCE010E948101B3
:2003C000F1CFEB8DEC0FFD2FF11DE35AFF4FF0829FB7F8940B8FEA89FB8980818062CFCFBF
:2003E000CF93DF93EC01888D8823B9F0AA89BB89E889F9898C9185FD03C0808186FD0DC0B6
:200400000FB607FCF7CF8C9185FFF2CF808185FFEDCFCE010E948101E9CFDF91CF91089593
:200420000F931F93CF93DF93209156012F5F322F37703093560120FF2BC020E831FD206418
:20044000347009F02062205FFC01EC01239600E011E06485662329F070E0C8010E94FD1730
:200460006F5F6187322F369F030E30E0311D1124311110C01682662311F061506187319658
:20048000EC17FD0731F7DF91CF911F910F91089520E0D4CF31503683EECF4F925F926F9203
:2004A0007F928F92AF92BF92CF92DF92EF920F931F93CF93DF933C01EB010E949B00F301A3
:2004C00027853089621B730B6A307105B0F3F894E881F9817BB170616BB16F7E6BB9CA8422
:2004E0008F812C2D281B822F2F83BF844A805B801D850C85DE841F5F0F5FD3949E81388541
:20050000A984EB844181D20120E0C32F522F322F3181442788943111380F08F43FEF8195D4
:20052000889410FD430F4795889411FD430F4795889412FD430F4795889413FD430F479559
:20054000889414FD430F4795889415FD430F4795889416FD430F4795889417FD430F479529
:200560008894232F1111242F8C0D422F002C7BB900C000C047FF6BB930812227889400C06E
:20058000002C6BB93111390F00C0002C7BB900C000C046FF6BB908F43FEF9195889400C04C
:2005A000002C6BB900FD230F00C0002C7BB900C000C045FF6BB92795889401FD230F00C0EC
:2005C000002C6BB92795889400C0002C7BB900C000C044FF6BB902FD230F2795889400C023
:2005E000002C6BB903FD230F00C0002C7BB900C000C043FF6BB92795889404FD230F00C0A8
:20060000002C6BB92795889400C0002C7BB900C000C042FF6BB905FD230F2795889400C0E1
:20062000002C6BB906FD230F00C0002C7BB900C000C041FF6BB92795889407FD230F00C063
:20064000002C6BB92795889400C0002C7BB900C000C040FF6BB9432F0111422F9A0D00C013
:20066000002C6BB900C000C0002C7BB900C000C047FF6BB932812227889400C0002C6BB938
:2006800031113C0F00C0002C7BB900C000C046FF6BB908F43FEFEB0DF11D00C0002C6BB984
:2006A000D0FC230F00C0002C7BB900C000C045FF6BB927958894D1FC230F00C0002C6BB94D
:2006C0002795889400C0002C7BB900C000C044FF6BB9D2FC230F2795889400C0002C6BB953
:2006E000D3FC230F00C0002C7BB900C000C043FF6BB927958894D4FC230F00C0002C6BB909
:200700002795889400C0002C7BB900C000C042FF6BB9D5FC230F2795889400C0002C6BB911
:20072000D6FC230F00C0002C7BB900C000C041FF6BB927958894D7FC230F00C0002C6BB9C4
:200740002795889400C0002C7BB900C000C040FF6BB9432FD110422FC19500C0002C6BB994
:20076000CE0D00C000C07BB900C000C047FF6BB931812227889400C0002C6BB93111380F50
:2007800000C0002C7BB900C000C046FF6BB908F43FEF8195889400C0002C6BB910FD230FA5
:2007A00000C0002C7BB900C000C045FF6BB92795889411FD230F00C0002C6BB92795889431
:2007C00000C0002C7BB900C000C044FF6BB912FD230F2795889400C0002C6BB913FD230FA7
:2007E00000C0002C7BB900C000C043FF6BB92795889414FD230F00C0002C6BB927958894F0
:2008000000C0002C7BB900C000C042FF6BB915FD230F2795889400C0002C6BB916FD230F62
:2008200000C0002C7BB900C000C041FF6BB92795889417FD230F00C0002C6BB927958894AE
:2008400000C0002C7BB900C000C040FF6BB9432F1111422F8C0D00C0002C6BB9119709F046
:2008600086CE20EE31E0D2010E941718DC01CB01F4E0B695A79597958795FA95D1F730E0AE
:2008800020E0B901EAE94E9E040C611D5E9E600D711D1124650D711D860F971FA11DB11D4E
:2008A000893E43E09407A105B10508F434C0885E9340A109B10942E0B695A7959795879559
:2008C0004A95D1F747E0849F080E211D949F200D311D1124290F311D6091550170E0860F3E
:2008E000971F820F931F4091D0015091D1016091D2017091D301292F3327420F531F611D1E
:20090000711D4093D0015093D1016093D2017093D3018093550178940E949B00F301708BB2
:200920006787DF91CF911F910F91EF90DF90CF90BF90AF908F907F906F905F904F90089536
:20094000549A08950F931F93CF93DF93CDB7DEB762970FB6F894DEBF0FBECDBF8C01F90104
:20096000DC011C968C917A8369835C834B835E834D8390819D8791819E8792819F8781302E
:20098000F1F4CE0101960E94100283E0888B1A8A198AD801ED91FC910484F585E02DBE01E9
:2009A0006F5F7F4FC801099562960FB6F894DEBF0FBECDBFDF91CF911F910F9108951C8696
:2009C0001B861A86198618861F82DFCF0F931F93CF93DF93CDB7DEB762970FB6F894DEBF22
:2009E0000FBECDBF8C01F901DC011C968C917A8369835C834B835E834D8390819D879181DD
:200A00009E8792819F878130E9F4CE0101960E941002188A1A8A198AD801ED91FC9104847B
:200A2000F585E02DBE016F5F7F4FC801099562960FB6F894DEBF0FBECDBFDF91CF911F91AE
:200A40000F9108951C861B861A86198618861F82E0CF4F925F926F927F929F92AF92BF9242
:200A6000CF92DF92EF92FF920F931F93CF93DF9300D01F92CDB7DEB7F09083038091860330
:200A800090918703A0918803B0918903892B8A2B8B2BD9F00E949B00009151011091520126
:200AA0002091530130915401601B710B820B930B009186031091870320918803309189032B
:200AC0006017710782079307C8F20E949B0060935101709352018093530190935401E09122
:200AE0008E03F0918F03309759F040918A0350918B0360918C0370918D038F2D0995F82EE4
:200B00000091590110915A014F2C512C712C612C0115110509F45EC0D8011C96EC901C97CB
:200B200080918403909185038436910510F41C961C92D801ED91FC91A280B38019821A8250
:200B40001B82FF2089F1F8013696D12CC12C2191222319F19280992001F130E050E040E092
:200B60002F5F3F4F4F4F5F4FC301B2010E94D9179B01AC01892D90E0B0E0A0E0BC01CD01FA
:200B80006F5F7F4F8F4F9F4F0E94D917A1E0B0E0AC0FBD1FAC0DBD1D8C93BFEFCB1ADB0A89
:200BA00083E0C816D10499F6D8011D964D915C911E9712966D917C919E012F5F3F4FC8014D
:200BC000F5010995D8011C96EC921C9714960D911C919ECF80914F01909150018C010F5F95
:200BE0001F4F1093500100934F014997B4F10E94F300C0904B01D0904C01E0904D01F0900F
:200C00004E019B01AC012C193D094E095F0921F421E030E040E050E088EE93E0089FB0013B
:200C2000099F700D189F700D1124072E000C880B990B0E94DA1430938503209384031092F7
:200C4000500110924F010E94F30060934B0170934C0180934D0190934E010F900F900F907D
:200C6000DF91CF911F910F91FF90EF90DF90CF90BF90AF909F907F906F905F904F90089542
:200C8000E8EDF1E0808361834283339692E0E63EF907C1F70C942905EF92FF920F931F93B7
:200CA000CF93DF93C3E5D2E000E512E089E1F82EEE24EA9440E060E080E00E944006F882ED
:200CC00019821A82FE0181E090E0E382148215820196339689309105C1F7FB8E1C8E1D8E36
:200CE000F801F38E148E158E789688E090E0E08211821282019733970097C9F7F801F082A2
:200D0000118212820E9429056AE070E080E090E00E94C00023970D5F1F4FF1E0C53DDF07C3
:200D200049F662E370E080E090E0DF91CF911F910F91FF90EF900C94C000EF92FF920F93CD
:200D40001F93CF93DF93C8EDD1E00BEC12E089E1F82EEE24EA9440E060E080E00E944006F6
:200D6000F88219821A82FE0181E090E0E382148215820196339689309105C1F7FB8E1C8EC6
:200D80001D8EF801F38E148E158E789688E090E0E08211821282019733970097C9F7F801C8
:200DA000F082118212820E9429056AE070E080E090E00E94C000239603501109F2E0C6350B
:200DC000DF0749F662E370E080E090E0DF91CF911F910F91FF90EF900C94C0000F931F93A7
:200DE000CF93DF93C8EDD1E019E10FEF40E060E080E00E944006188319821A82FE0181E0E7
:200E000090E00383148215820196339689309105C1F71B8F1C8E1D8E0E9429056AE070E0DF
:200E200080E090E00E94C000239682E0C83CD807E9F662E370E080E090E0DF91CF911F91BE
:200E40000F910C94C0000F931F93CF93DF93C8ECD2E019E10FEF40E060E080E00E94400664
:200E6000188319821A82FE0181E090E00383148215820196339689309105C1F71B8F1C8E62
:200E80001D8E0E9429056AE070E080E090E00E94C000239781E0C83DD807E9F662E370E098
:200EA00080E090E0DF91CF911F910F910C94C000853588F4982F990F980F90934801982F63
:200EC000990F990F891B81508093490110924A0188E491E008958A3A90F48555982F990FF8
:200EE000990F282F291B922F91509093480110924901982F990F890F80934A01E9CF8A5AB4
:200F000010924801982F990F980F90934901982F990F990F891B8150EFCFBF92CF92DF92F6
:200F2000EF92FF920F931F93CF93DF93B82E062F142FC8EDD1E06901330FEE08FF08B882D0
:200F400009831A830E942905C701B6010E94C000239682E0C63ED80791F7DF91CF911F91B1
:200F60000F91FF90EF90DF90CF90BF9008954F925F926F927F928F929F92AF92BF92CF92E0
:200F8000DF92EF92FF920F931F93CF93DF93CDB7DEB762970FB6F894DEBF0FBECDBF10E05D
:200FA00000E0C82ED12CF12CE12CCD82DE82EF82F886C62ED12CF12CE12CC986DA86EB865B
:200FC000FC86C42ED12CF12CE12CCD86DE86EF86F88AB801012E000C880B990B0E942716BE
:200FE00020E030E040E85BE30E94DC166B017C016D817E818F8198850E94271669837A831C
:201000008B839C8369857A858B859C850E9427164B015C016D857E858F8598890E942716F4
:201020002B013C01AC019B01C701B6010E94DC160E94F6156A8BA5019401C701B6010E94ED
:20104000DC160E94F615698B29813A814B815C81C701B6010E94DC160E94F615862F4A89A7
:2010600069890E9440060E9429050F5F1F4F011521E0120709F0ADCF8FEF90E09E838D8326
:20108000CD80DE80B601DD0C880B990B0E94271620E030E040E85BE30E94DC166B017C01FC
:2010A000AC019B01C301B2010E94DC160E94F615062FA7019601C501B4010E94DC160E940A
:2010C000F615162FA701960169817A818B819C810E94DC160E94F615862F402F612F0E94DC
:2010E00040060E9429052D813E81225031093E832D832F3F3F4F21F662960FB6F894DEBF57
:201100000FBECDBFDF91CF911F910F91FF90EF90DF90CF90BF90AF909F908F907F906F9090
:201120005F904F90089590E080E00895FC01858596850895CF93DF9300D000D000D0CDB750
:20114000DEB7AB011C821D821E82DC01ED91FC910190F081E02D19821A821B829E012F5F79
:201160003F4FBE016C5F7F4F099526960FB6F894DEBF0FBECDBFDF91CF9108954F925F92A9
:201180006F927F928F929F92AF92BF92CF92DF92EF92FF920F931F93CF93DF93CDB7DEB734
:2011A0002A970FB6F894DEBF0FBECDBF10E000E0C82ED12CF12CE12CC982DA82EB82FC82A8
:2011C000C62ED12CF12CE12CCD82DE82EF82F886842E912CB12CA12C88ED91E09A87898726
:2011E000EE24E394F12CB8016E0D7F1D072E000C880B990B0E9427160E94491720E030E010
:201200004EEF52E40E94DC1620E030E040E053E40E940C1520E030E04FE753E40E947D15EC
:201220002B013C0169817A818B819C810E942716A30192010E94DC160E94F615A985BA8573
:201240006C936D817E818F8198850E942716A30192010E94DC160E94F615E985FA8561834D
:20126000C501B4010E942716A30192010E94DC160E94F615A985BA8512966C93BFEFEB1AD5
:20128000FB0AE985FA853396FA87E987FBE5EF16F10409F0A8CF0E94290562E370E080E093
:2012A00090E00E94C0000F5F1F4F043B110509F093CF2A960FB6F894DEBF0FBECDBFDF9159
:2012C000CF911F910F91FF90EF90DF90CF90BF90AF909F908F907F906F905F904F9008952D
:2012E0002F923F924F925F926F927F928F929F92AF92BF92CF92DF92EF92FF920F931F935C
:20130000CF93DF93CDB7DEB7A2970FB6F894DEBF0FBECDBF8C0169A37AA32DB73EB738A3F6
:201320002F8F880F991F880F991F4DB75EB7481B590B0FB6F8945EBF0FBE4DBFADB7BEB751
:201340001196BA8BA98BEDB7FEB7E81BF90B0FB6F894FEBF0FBEEDBF2DB73EB72F5F3F4F91
:201360003C8B2B8B4DB75EB7481B590B0FB6F8945EBF0FBE4DBFADB7BEB71196BE8BAD8BC8
:201380009801220F331FEDB7FEB7E21BF30B0FB6F894FEBF0FBEEDBF2DB73EB72F5F3F4F61
:2013A000388B2F874DB75EB7481B590B0FB6F8945EBF0FBE4DBFADB7BEB71196B88FAF8B8C
:2013C000EDB7FEB7E81BF90B0FB6F894FEBF0FBEEDBF2DB73EB72F5F3F4F3A8F298F4DB7AC
:2013E0005EB7401B510B0FB6F8945EBF0FBE4DBF8DB79EB7019698878F8319014C01AD89DC
:20140000BE89BC87AB87EB89FC89FA87E9872F8538893E832D8349895A895C834B838F89C6
:20142000988D9A838983B12CA12C9801012E000C440B550B2B8F3C8F4D8F5E8F0E94F3004E
:20144000A981BA816D937D938D939D93BA83A983AB81BC8120E030E040E85FE32D933D93EB
:201460004D935D93BC83AB83ED81FE8111921192FE83ED83A985BA8528E03EEB4DE850E404
:201480002D933D934D935D93BA87A987EB85FC851192119211921192FC87EB876B8D7C8D08
:2014A0008D8D9E8D0E9427166B017C01B5010B2C000C880B990B0E9427162B013C01A701FF
:2014C0009601C701B6010E94DC169B01AC01C301B2010E947D159B01AC0166E676E686E611
:2014E0009FE30E940B15D1016D937D938D939D931D01F40121E021934F013FEFA31AB30AB6
:201500000A151B0509F09ACF4F8158854A0D5B1D5A87498789889A888F8598899E838D8364
:201520002B883C88AD89BE89BC83AB83EF89F88DFA83E98310E000E00E94F300A981BA819A
:20154000CD90DD90ED90FD90BA83A9836C197D098E099F090E9425166B017C01EB81FC8155
:20156000C192D192E192F192FC83EB8320E030E04AE754E40E947D15D1014D905D906D908C
:201580007D901D019B01AC010E94DC1623EC35EF4CE950EC0E94DC166B877C878D879E87DD
:2015A000A3019201C701B6010E94DC1620E030E04AE754E40E947D159B01AC016B857C85FA
:2015C0008D859E850E940C156B017C0120E030E0A9010E94781587FD88C0F401C082D182EB
:2015E000E282F38220E030E042EB52E4D4016D917D918D919C910E94DC166B017C01562E72
:201600006D2C782E4F2C20E030E0A9010E94D71687FDA3C020E030E040E05FE3652D762D39
:20162000872D942D0E940C150E94EF15ED81FE8161937193FE83ED830F5F1F4FF4E08F0EA9
:20164000911CA016B10609F077CFE9A1FAA1EF80F8842F85388910E0628171810081D9018C
:201660008D919D919D01AC01440F551F840F951F88529E4FDC010C9311967C93119712967C
:201680006C93D7018D917D018111182F339649855A85E416F50601F70E94290540E060E06B
:2016A00080E00E944006111135CFEF8DF8A10FB6F894FEBF0FBEEDBFA2960FB6F894DEBFFA
:2016C0000FBECDBFDF91CF911F910F91FF90EF90DF90CF90BF90AF909F908F907F906F90CB
:2016E0005F904F903F902F900895D4011D921D921D921C921397F801EE0FFF1FEE0FFF1F88
:20170000298D3A8DE20FF31F2081318142815381C301B2010E94DC166B017C01F1013497AE
:20172000C082D182E282F3820E94F300E981FA81349760837183828393832AE037ED43E2B1
:201740005CE3C701B6010E94781587FF0FC0EF81F885E00FF11F108245CF20E030E040E085
:201760005FE3B601C7010E940B155ECF20E030E042EB52E4D4016D917D918D919C910E9478
:20178000DC16562E672E782E492E44CFCF92DF92EF92FF926B017C01C114D104E104F104BD
:2017A00041F00E943A14A70196010E94A8146B017C01C701B601FF90EF90DF90CF9008958A
:2017C0002F923F924F925F926F927F928F929F92AF92BF92EF92FF920F931F93CF93DF9375
:2017E000CDB7DEB72A970FB6F894DEBF0FBECDBF4C012B017A0180E480937C0080917A0056
:20180000806480937A0080917A0086FDFCCF8091780060917900762F682F072E000C880B7B
:20182000990B611571058105910511F00E94891464E570E080E090E00E94C60BAB014B5F8A
:201840005F4F8B01000F111F060F171F08521E4F2FEFF801208311821282CA01880F991F02
:20186000840F951F88529E4F9E838D83FC012083118212820E942905540122242A94312CDC
:20188000C80101969A838983F8013296FC83EB838D819E819A87898701969E838D83E9857D
:2018A000FA853296F887EF83052C000C66087708B7FC26C0C101B4010E94FD176A9DC00138
:2018C0006B9D900D7A9D900D1124F8018083E981FA811082EB81FC811082E985FA8580839C
:2018E000ED81FE811082EF81F88510820E942905C301B2010E94C000F1E0AF1AB108D8CF47
:2019000040E060E080E00E944006B701FF0C880B990B2A960FB6F894DEBF0FBECDBFDF91AE
:20192000CF911F910F91FF90EF90BF90AF909F908F907F906F905F904F903F902F900C9403
:20194000C000CF93E2E9F0E08491EEECF0E09491EAEBF0E0E491EE2329F1882339F083301A
:2019600069F110F5813081F1823091F1F0E0EE0FFF1FEA57FF4FA591B491EC91E92391F0B2
:20198000C091CE01CF5FC093CE0190E080E00E949214C81729F06C2F90E080E00E949A140C
:2019A0000C940000CF9108958730A9F08830C9F08430E1F6809180008F7D03C0809180004D
:2019C0008F7780938000D2CF84B58F7784BDCECF84B58F7DFBCF8091B0008F778093B00017
:2019E000C5CF8091B0008F7DF9CF0E941E181F920F920FB60F9211242F933F938F939F9311
:201A0000AF93BF938091D0019091D101A091D201B091D3013091CF0123E0230F2D3758F5CD
:201A20000196A11DB11D2093CF018093D0019093D101A093D201B093D3018091D401909103
:201A4000D501A091D601B091D7010196A11DB11D8093D4019093D501A093D601B093D70166
:201A6000BF91AF919F918F913F912F910F900FBE0F901F90189526E8230F0296A11DB11D2B
:201A8000D2CF1F920F920FB60F9211242F933F934F935F936F937F938F939F93AF93BF9354
:201AA000EF93FF93E0910201F09103010995FF91EF91BF91AF919F918F917F916F915F918B
:201AC0004F913F912F910F900FBE0F901F9018951F920F920FB60F9211242F933F934F93CC
:201AE0005F936F937F938F939F93AF93BF93EF93FF93E0910001F09101010995FF91EF9141
:201B0000BF91AF919F918F917F916F915F914F913F912F910F900FBE0F901F9018951F925D
:201B20000F920FB60F9211242F933F934F935F936F937F938F939F93AF93BF93EF93FF93F1
:201B400086EE92E00E948101FF91EF91BF91AF919F918F917F916F915F914F913F912F911B
:201B60000F900FBE0F901F9018951F920F920FB60F9211242F938F939F93EF93FF93E09176
:201B8000F602F091F7028081E091FC02F091FD0282FD1BC090818091FF028F5F8F732091C5
:201BA0000003821741F0E091FF02F0E0EA51FD4F958F8093FF02FF91EF919F918F912F9137
:201BC0000F900FBE0F901F9018958081F4CFE6EEF2E01382128288EE93E0A0E0B0E084830B
:201BE0009583A683B78387E391E09183808385EC90E09587848784EC90E09787868780ECF9
:201C000090E0918B808B81EC90E0938B828B82EC90E0958B848B86EC90E0978B868B118E64
:201C2000128E138E148EE3E8F3E08FEF808312821182148613868FEF9FEFDC01878390873E
:201C4000A187B2870895CF93DF93CDB7DEB7A3970FB6F894DEBF0FBECDBF789484B58260F1
:201C600084BD84B5816084BD85B5826085BD85B5816085BD80916E00816080936E0010928A
:201C80008100809181008260809381008091810081608093810080918000816080938000AF
:201CA0008091B10084608093B1008091B00081608093B00080917A00846080937A00809148
:201CC0007A00826080937A0080917A00816080937A0080917A00806880937A001092C100BF
:201CE000E091F602F091F70282E08083E091F202F091F3021082E091F402F091F5028FECD5
:201D000080831092FE02E091FA02F091FB0286E08083E091F802F091F902808180618083FE
:201D2000E091F802F091F902808188608083E091F802F091F902808180688083E091F80292
:201D4000F091F90280818F7D808380916C01811145C010925E0110925D018FEF80936101EE
:201D6000809362018093630180936401809365018093660181E08093670110926901109281
:201D800068011092600110925F018091590190915A01892B31F48BE591E090935A018093A3
:201DA0005901E0915701F0915801309721F08BE591E0958384838BE591E0909358018093DE
:201DC000570110926B0110926A0185E291E090935C0180935B0181E080936C01549A88ED85
:201DE00091E090935E0180935D018AE590E090936901809368018091860390918703A09121
:201E00008803B0918903843C29E09207A105B10520F484EC99E0A0E0B0E0809386039093E0
:201E20008703A0938803B09389038FEF8093610180EB8093620180EF80936301EEECF0E027
:201E40002491EAEBF0E084918823C9F090E0880F991FFC01E255FF4F45915491FC01EC5575
:201E6000FF4FA591B4919FB7F894FA013081822F809583238083EC91E22BEC939FBF81EACA
:201E80009CE09093010180930001809169008C7F816080936900E89AFAE54F2E512C612CC3
:201EA000712C1FEF0FEBEEEC2E2EE1E03E2E90E080E00E9492148093CE018331C0F010921A
:201EC000CE0190E080E00E949214882329F060E090E080E00E949A1481E090E00E949214DE
:201EE000882329F060E081E090E00E949A142091CE0130E050E040E019A27E01F1E2EF0ED3
:201F0000F11CCA01B9012AE030E040E050E00E94DA14605DF70162937F0121153105410559
:201F2000510579F7309761F001900020E9F73197AF014E195F09B70186EE92E00E940301A7
:201F400042E050E065E471E086EE92E00E940301E091CE01E33108F068C0F0E0EE54F04F44
:201F60000C941118C50F221037105F10B41019112A1153118D11AB11E411F4111F12521266
:201F80008412CC12761382139113F12CE12CD12CC12CF1E0EF16F10451F040E060E08C2DD2
:201FA00022E0E216F10431F44C2D60E002C040E06C2D80E00E9440060E94290563E070E02E
:201FC00080E090E00E94C0003FEFC31AD30AC11481E0D806F1F6CC24CA94D12C91E0E91631
:201FE000F10451F040E060E08C2DE2E0EE16F10431F44C2D60E002C040E06C2D80E00E947C
:2020000040060E94290563E070E080E090E00E94C000F1E0CF1AD10808F73FEFE31AF30A2B
:2020200083E0E816F10409F0B2CF80E090E0892B09F43DCF0E946D01882309F433CF0E94E7
:2020400000002FCF40E060E08FEF0E94B7074FEF6FEF8FEF0E94B7074FEF60E080E00E944A
:20206000B70740E06FEF80E00E94B707DECF6AE0E62EF12C4FEF6FEF8FEF0E9440060E9498
:20208000290562E370E080E090E00E94C00040E060E080E00E9440060E94290562E370E03E
:2020A00080E090E00E94C00091E0E91AF10811F768EE73E080E090E00E94C000B6CF68E2CF
:2020C00073E280E090E00E94C60B4B015C0164E670E080E090E00E94C60B6B017C016DE2AA
:2020E00070E080E090E00E94C60BE8EE8E0EE3E09E1EA11CB11CF2E3CF0ED11CE11CF11C29
:20210000DC01CB010596A11DB11DA401B6010E94E00B68E273E280E090E00E94C60B4B01D8
:202120005C0164E670E080E090E00E94C60B6B017C016DE270E080E090E00E94C60B28EE84
:20214000820E23E0921EA11CB11C32E3C30ED11CE11CF11CDC01CB010596A11DB11DA40160
:20216000B6010E94E00B61CF48EDE42E41E0F42E59E1D52E40E060E080E00E944006F70184
:20218000D0821182128281E090E01383148215820196339685309105C1F7F701D786108AE0
:2021A000118A0E9429056AE070E080E090E00E94C000F3E0EF0EF11C24EDE21622E0F20608
:2021C000C9F662E370E080E090E00E94C00024EDE22E22E0F22E39E1D32E40E060E080E05B
:2021E0000E944006F701D0821182128281E090E01383148215820196339685309105C1F78F
:20220000F701D786108A118A0E9429056AE070E080E090E00E94C000F3E0EF1AF10828EDAE
:20222000E21621E0F206C9F662E370E080E090E043CF0E9423070E94EE060E949D060E942E
:202240004C060E94EE060E9423070E949D060E944C06EBCE40E060E080E00E9440069AE0B6
:20226000E92EF12C0E943A14A30192010E94A814FB01EE0FFF1FE60FF71FE852FE4F108369
:20228000118212820E94290564E670E080E090E00E94C00031E0E31AF10821F764E670E0C2
:2022A00080E090E009CF40E060E080E00E944006B4E1EB2EF12C6FEF70E080E090E00E94E3
:2022C000C60BD62E6FEF70E080E090E00E94C60BC62E6FEF70E080E090E00E94C60BB62E6F
:2022E0000E943A14A30192010E94A814FB01EE0FFF1FE60FF71FE852FE4FB082C182D282E7
:202300000E94290564E670E080E090E00E94C00081E0E81AF10879F6C1CF0E943A14A30132
:2023200092010E94A8147B01EE0CFF1C6E0D7F1DFB01E852FE4F7F011083118312830E94A3
:20234000290560E070E0CB010E94C000F7011082118212826ACE64E873E080E090E00E9497
:20236000C60B4B015C0140E160E180E10E9440060E943A14A30192010E94A8147B01EE0C3D
:20238000FF1C6E0D7F1D9B0128523E4F7901F9011083118312830E94290564E170E080E073
:2023A00090E00E94C00080E1F7018083818382830E942905F4E68F0E911CA11CB11CB401B3
:2023C000990C880B990B78CE40E060E08FEF0E94BE084FEF6FEF8FEF0E94BE084FEF60E095
:2023E00080E00E94BE0821CE22E330E040E06FEF80E00E948D0729E130E040E060E080E023
:202400000E948D0722E330E040E060E08FEF0E948D0729E130E040E060E080E00E948D074D
:2024200022E330E04FEF60E080E00E948D0729E130E040E060E080E00E948D07F6CDD12CA3
:20244000C12C7AE5872E912C68EDE62E61E0F62EB12CA12CC501B4010E94E917862F8C0DDB
:202460000E945807FC01828191812081F701208391838283B39423E0E20EF11CA1143AE5D9
:20248000B30641F70E94290564E170E080E090E00E94C0008FEFC81AD80AC11495E0D90649
:2024A00099F6C3CD5AE0C52ED12C48EDE42E41E0F42EF70190E080E010831182128203962E
:2024C00039968A359105C1F70E94290562E370E080E090E00E94C000F70190E080E010822F
:2024E00011821282039639968A359105C1F7E3E0EE0EF11CF1EEEF16F1E0FF06D1F621E0F2
:20250000C21AD10891F691CDB12CA12C38EDE32E31E0F32E6701912C812CC4018A0D9B1D29
:202520006FEF70E00E94FD170E945807FC01828191812081F601208391838283F3E08F0E60
:20254000911C29E0C20ED11C3AE58316910429F70E94290562E370E080E090E00E94C00004
:20256000F70190E080E0108211821282039639968A359105C1F783E0E80EF11C91EEE91681
:2025800091E0F90639F6EFEFAE1ABE0AA114F1E0BF0609F0BBCF49CD24E731E03BA32AA383
:2025A000690168E070E080E090E00E94C60BF6012081261717060CF087C01082FFEFCF1A38
:2025C000DF0A2C143D0469F7ECECF1E023E030E08081429150E0840F952F911D840F951F25
:2025E000B9010E94FD17628381E0E437F80781F70E943A142FEF30E040E050E00E94A814C7
:202600006837710581059105D4F40E943A1427E030E040E050E00E94A814FB01EC58FE4F7F
:202620007F0190806FE570E080E090E00E94C60B60567F4F8F4F9F4F690DF701608328ED6D
:20264000E22E21E0F22EEAA1FBA16191FBA3EAA370E090E080E00E94271620E030E04FE7C0
:2026600053E40E947D1520E030E04FE353E40E94DC164B015C0120E030E0A9010E94D716F0
:2026800020E030E040E05FE387FD22C0C501B4010E940C150E94EF15862F880F880FF701A3
:2026A0006138D8F0108311838283F3E0EF0EF11C2AA13BA12C153D0531F60E9429056FE040
:2026C00070E080E090E0F8CC822F861B808376CFC501B4010E940B15DDCF613420F010835B
:2026E00081831282E2CF80831182FBCF3FEF39831A821B82BE016F5F7F4F81E090E00E9440
:20270000700993CC89E0E8E0F1E0DE01119601900D928A95E1F7BE016F5F7F4F83E090E004
:20272000EECF40E060E080E00E94400698EDA92E91E0B92ED12CC12C88EDE82E81E0F82E84
:202740000E943A142AE030E040E050E00E94A8146630710581059105A4F0F7012081209FAD
:20276000020E20E0211D20832181209F020E20E0211D21832281209F020E20E0211D2283C0
:202780001124F3E0EF0EF11C26EEE21622E0F206B9F6F50190E080E09601281B390B2A352F
:2027A000310518F4108311831283019633978A30910591F70E9429056EE170E080E090E0A3
:2027C0000E94C0003FEFC31AD30A83E0A80EB11C94EBC916D10409F0AFCF27CC8F929F92DA
:2027E000AF92BF92CF92DF92EF92FF92CF93DF93EC01688179818A819B8161157105810526
:20280000910521F464E279ED8BE597E02DE133EF41E050E00E94A81449015A019B01AC01AD
:20282000A7EAB1E40E94C7146B017C01ACEEB4EFA50194010E94D514C60ED71EE81EF91E23
:20284000F7FE06C081E0C81AD108E10880E8F80AC882D982EA82FB82C701B6019F77DF91BB
:20286000CF91FF90EF90DF90CF90BF90AF909F908F9008958F929F92AF92BF92CF92DF92ED
:20288000EF92FF9260910401709105018091060190910701611571058105910521F464E285
:2028A00079ED8BE597E02DE133EF41E050E00E94A81449015A019B01AC01A7EAB1E40E9436
:2028C000C7146B017C01ACEEB4EFA50194010E94D514C60ED71EE81EF91EF7FE06C081E02F
:2028E000C81AD108E10880E8F80AC0920401D0920501E0920601F0920701C701B6019F7773
:20290000FF90EF90DF90CF90BF90AF909F908F900895609304017093050180930601909324
:2029200007010895F999FECF92BD81BDF89A992780B50895262FF999FECF1FBA92BD81BDC8
:2029400020BD0FB6F894FA9AF99A0FBE01960895052E97FB1EF400940E94BF1457FD07D016
:202960000E94DA1407FC03D04EF40C94BF1450954095309521953F4F4F4F5F4F089590956B
:202980008095709561957F4F8F4F9F4F08950E94FC14A59F900DB49F900DA49F800D911DEF
:2029A00011240895B7FF0C94C7140E94C714821B930B0895A1E21A2EAA1BBB1BFD010DC08E
:2029C000AA1FBB1FEE1FFF1FA217B307E407F50720F0A21BB30BE40BF50B661F771F881F93
:2029E000991F1A9469F760957095809590959B01AC01BD01CF010895A29FB001B39FC00164
:202A0000A39F700D811D1124911DB29F700D811D1124911D08955058BB27AA270E94231555
:202A20000C949D160E948F1638F00E94961620F039F49F3F19F426F40C948C160EF4E0958B
:202A4000E7FB0C948616E92F0E94AE1658F3BA17620773078407950720F079F4A6F50C94FC
:202A6000D0160EF4E0950B2EBA2FA02D0B01B90190010C01CA01A0011124FF27591B99F0E2
:202A8000593F50F4503E68F11A16F040A22F232F342F4427585FF3CF469537952795A7950A
:202AA000F0405395C9F77EF41F16BA0B620B730B840BBAF09150A1F0FF0FBB1F661F771F39
:202AC000881FC2F70EC0BA0F621F731F841F48F4879577956795B795F7959E3F08F0B0CFBD
:202AE0009395880F08F09927EE0F9795879508950E94621608F481E008950E9491150C9481
:202B00009D160E94961658F00E948F1640F029F45F3F29F00C94861651110C94D1160C945C
:202B20008C160E94AE1668F39923B1F3552391F3951B550BBB27AA2762177307840738F06D
:202B40009F5F5F4F220F331F441FAA1FA9F335D00E2E3AF0E0E832D091505040E695001C41
:202B6000CAF72BD0FE2F29D0660F771F881FBB1F261737074807AB07B0E809F0BB0B802D67
:202B8000BF01FF2793585F4F3AF09E3F510578F00C9486160C94D1165F3FE4F3983ED4F31C
:202BA000869577956795B795F7959F5FC9F7880F911D9695879597F90895E1E0660F771FD7
:202BC000881FBB1F621773078407BA0720F0621B730B840BBA0BEE1F88F7E09508950E9496
:202BE000F6156894B1110C94D11608950E94B61688F09F5798F0B92F9927B751B0F0E1F063
:202C0000660F771F881F991F1AF0BA95C9F714C0B13091F00E94D016B1E008950C94D016BF
:202C2000672F782F8827B85F39F0B93FCCF3869577956795B395D9F73EF490958095709505
:202C400061957F4F8F4F9F4F0895E89409C097FB3EF490958095709561957F4F8F4F9F4F6F
:202C60009923A9F0F92F96E9BB279395F695879577956795B795F111F8CFFAF4BB0F11F4CD
:202C800060FF1BC06F5F7F4F8F4F9F4F16C0882311F096E911C0772321F09EE8872F762F34
:202CA00005C0662371F096E8862F70E060E02AF09A95660F771F881FDAF7880F96958795F8
:202CC00097F90895990F0008550FAA0BE0E8FEEF16161706E807F907C0F012161306E40735
:202CE000F50798F0621B730B840B950B39F40A2661F0232B242B252B21F408950A2609F4AC
:202D0000A140A6958FEF811D811D089597F99F6780E870E060E008959FEF80EC089500245A
:202D20000A941616170618060906089500240A9412161306140605060895092E0394000C43
:202D400011F4882352F0BB0F40F4BF2B11F460FF04C06F5F7F4F8F4F9F4F089557FD905830
:202D6000440F551F59F05F3F71F04795880F97FB991F61F09F3F79F08795089512161306F5
:202D80001406551FF2CF4695F1DF08C0161617061806991FF1CF8695710561050894089562
:202DA000E894BB2766277727CB0197F908950E94621608F48FEF08950E94EF160C949D1666
:202DC0000E948F1638F00E94961620F0952311F00C9486160C948C1611240C94D1160E9491
:202DE000AE1670F3959FC1F3950F50E0551F629FF001729FBB27F00DB11D639FAA27F00DFC
:202E0000B11DAA1F649F6627B00DA11D661F829F2227B00DA11D621F739FB00DA11D621F17
:202E2000839FA00D611D221F749F3327A00D611D231F849F600D211D822F762F6A2F112438
:202E40009F5750409AF0F1F088234AF0EE0FFF1FBB1F661F771F881F91505040A9F79E3FF7
:202E6000510580F00C9486160C94D1165F3FE4F3983ED4F3869577956795B795F795E79540
:202E80009F5FC1F7FE2B880F911D9695879597F908959F930E9453170F9007FCEE5F0C94CD
:202EA0007C170C948C160E94B616D8F3E894E0E0BB279F57F0F02AED3FE049EC06C0EE0FE2
:202EC000BB0F661F771F881F28F0B23A62077307840728F0B25A620B730B840BE3959A95AF
:202EE00072F7803830F49A95BB0F661F771F881FD2F790480C949217EF93E0FF07C0A2EA34
:202F00002AED3FE049EC5FEB0E9423150E949D160F90039401FC9058E8E6F0E00C949E17BF
:202F20009F3F31F0915020F4879577956795B795880F911D9695879597F908959F938F9320
:202F40007F936F93FF93EF939B01AC010E94DC16EF91FF910E94B2172F913F914F915F9191
:202F60000C94DC16DF93CF931F930F93FF92EF92DF927B018C01689406C0DA2EEF010E94AF
:202F8000EF16FE01E894A5912591359145915591A6F3EF010E942315FE019701A801DA9432
:202FA00069F7DF90EF90FF900F911F91CF91DF910895DB018F939F930E94C714BF91AF913A
:202FC000A29F800D911DA39F900DB29F900D11240895AA1BBB1B51E107C0AA1FBB1FA617E2
:202FE000B70710F0A61BB70B881F991F5A95A9F780959095BC01CD01089597FB072E16F46F
:20300000009407D077FD09D00E94E91707FC05D03EF4909581959F4F0895709561957F4FBD
:203020000895EE0FFF1F0590F491E02D09940E94FC14B7FF0895821B930B089581E090E066
:20304000F8940C942318F894FFCF0201020101000000FF0000FFFFFF0000FF00000000F5B8
:203060000CF50CF50C9A089608930800000000E604A204A0049A089608FF004D02000000A5
:2030800000A30103013001F00161013F0153010D0A00FFFFFFFFFFFFFFFFFFFFFFFFFFFF67
:2030A000FFFFFFFFFFFFFFFFFFFFFFFFFFFFFFFFFFFFFFFFFFFFFFFFFFFFFFFFFFFFFFFF30
:2030C000FFFFFFFFFFFFFFFFFFFFFFFFFFFFFFFFFFFFFFFFFFFFFFFFFFFFFFFFFFFFFFFF10
:2030E000FFFFFFFFFFFFFFFFFFFFFFFFFFFFFFFFFFFFFFFFFFFFFFFFFFFFFFFFFFFFFFFFF0
:2031000055057091560580915705909158050E942E12EDA5FEA53196FEA7EDA72DA53EA542
:203120008FA598A9821793070CF03CCF7CC180E5B401A3010E944B1320E030E04AE754E46C
:203140000E9446320E94AF30882777FD8095982F0E94F10268C180912C0490912D04A09153
:203160002E04B0912F048093FA049093FB04A093FC04B093FD048091300490913104A09133
:203180003204B09133048093FE049093FF04A0930005B09301058091340490913504A091F1
:2031A0003604B09137048093020590930305A0930405B093050589E092E0A1E8BBE334C095
:2031C0008091200490912104A0912204B09123048093FA049093FB04A093FC04B093FD040B
:2031E0008091240490912504A0912604B09127048093FE049093FF04A0930005B0930105C9
:203200008091280490912904A0912A04B0912B048093020590930305A0930405B093050586
:203220008DEC9CECACECBDE38093A4039093A503A093A603B093A7030E948D10F4C080E0B4
:2032400090E0A0E0B0E08093120590931305A0931405B09315058093160590931705A09340
:203260001805B093190580931A0590931B05A0931C05B0931D050E948D100E946C100E94A3
:203280002E12D1C088E5B401A3010E944B131B012C0189E5B401A3010E944B137B018C017E
:2032A0008AE5B401A3010E944B135B016C0180914E05882309F443C090E006C0E80DF91D2D
:2032C0008081883539F09F5FE92FF0E0E615F705ACF3E5C390E006C0E80DF91D80818935E3
:2032E00039F09F5FE92FF0E0E615F705ACF3E0C390E006C0E80DF91D80818A3539F09F5F5E
:20330000E92FF0E0E615F705ACF3DBC320921205309213054092140550921505E09216057A
:20332000F09217050093180510931905A0921A05B0921B05C0921C05D0921D0544C0C80107
:20334000B70120910A0530910B0540910C0550910D050E94672F7B018C01C601B5012091E0
:203360000E0530910F0540911005509111050E94672F5B016C01609106057091070580916D
:20338000080590910905A20191010E94672F60931205709313058093140590931505C7012E
:2033A000D8018093160590931705A0931805B0931905C501D60180931A0590931B05A093D1
:2033C0001C05B0931D050E948D100E946C100E942E1235CF81E080934E0525C010924E0583
:2033E00022C060E070E080E090E09B01AC017B018C010E94D61217C087E496E062E473E05E
:203400000E94132B87E496E02C966FAD2C974AE050E00E945D2A87E496E06AE070E04AE022
:2034200050E00E94F42A80914F05909150051816190624F480E090E00E94D30BD4018C911A
:203440008D3409F055C0B401A3010E944B130E94B4307B018C01633019F0653009F510C0B6
:203460008CE4B401A3010E944B130E94AF30DC01CB019093A9038093A8030E94E50B1DC05D
:203480008CE4B401A3010E944B130E94AF30DC01CB019093A9038093A8030E94D30B0DC05F
:2034A00087E496E06BE473E00E94132B87E496E06E2D4AE050E00E946F2A80E5B401A301DA
:2034C0000E944B137B018C0120E030E040E050E00E943B32181664F4C801B70120E030E05D
:2034E0004AE754E40E9446320E94B4300E94F102F4018081843569F4B401A3010E944B13C9
:203500000E94B430DC01CB0190E0B401A3010E946A06D4018C91843209F077C2B401A3016E
:203520000E944B130E94B430653009F46FC1663070F4623039F1633020F4613009F065C235
:2035400023C06330E9F0643009F05FC217C0683079F0693030F4663079F0673009F055C233
:2035600009C0693009F4F3C1653109F04EC226C290E0BFC190E0A3C190E05AC190E0FCC036
:2035800090E0AAC090E058C090E006C0E80DF91D8081883539F09F5FE92FF0E0E615F705C4
:2035A000ACF30DC088E5B401A3010E944B130E94AF309B01AC0188E5B9010E94B30790E01C
:2035C00006C0E80DF91D8081893539F09F5FE92FF0E0E615F705ACF30DC089E5B401A30122
:2035E0000E944B130E94AF309B01AC0189E5B9010E94B30790E006C0E80DF91D80818A357C
:2036000039F09F5FE92FF0E0E615F705ACF3FDC18AE5B401A3010E944B130E94AF309B0162
:20362000AC018AE5B9010E94B307EFC1E80DF91D8081883539F09F5FE92FF0E0E615F705D9
:20364000ACF30DC088E5B401A3010E944B130E94AF309B01AC0188E5B9010E949C0790E092
:2036600006C0E80DF91D8081893539F09F5FE92FF0E0E615F705ACF30DC089E5B401A30181
:203680000E944B130E94AF309B01AC0189E5B9010E949C0790E006C0E80DF91D80818A35F2
:2036A00039F09F5FE92FF0E0E615F705ACF3ADC18AE5B401A3010E944B130E94AF309B0112
:2036C000AC018AE5B9010E949C079FC1E80DF91D8081883539F09F5FE92FF0E0E615F705A0
:2036E000ACF30DC088E5B401A3010E944B130E94AF309B01AC0188E5B9010E94850790E009
:2037000006C0E80DF91D8081893539F09F5FE92FF0E0E615F705ACF30DC089E5B401A301E0
:203720000E944B130E94AF309B01AC0189E5B9010E94850790E006C0E80DF91D80818A3568
:2037400039F09F5FE92FF0E0E615F705ACF35DC18AE5B401A3010E944B130E94AF309B01C1
:20376000AC018AE5B9010E9485074FC1E80DF91D8081883539F09F5FE92FF0E0E615F70566
:20378000ACF30DC088E5B401A3010E944B130E94AF309B01AC0188E5B9010E946E0790E07F
:2037A00006C0E80DF91D8081893539F09F5FE92FF0E0E615F705ACF30DC089E5B401A30140
:2037C0000E944B130E94AF309B01AC0189E5B9010E946E0790E006C0E80DF91D80818A35DF
:2037E00039F09F5FE92FF0E0E615F705ACF30DC18AE5B401A3010E944B130E94AF309B0171
:20380000AC018AE5B9010E946E07FFC08DE6B401A3010E944B130E94AF30DC01CB010E9464
:20382000240CF3C0E80DF91D8081883539F09F5FE92FF0E0E615F705ACF30AC088E5B4014B
:20384000A3010E944B13AB01BC0188E50E94930290E006C0E80DF91D8081893539F09F5F90
:20386000E92FF0E0E615F705ACF30AC089E5B401A3010E944B13AB01BC0189E50E9493022B
:2038800090E006C0E80DF91D80818A3539F09F5FE92FF0E0E615F705ACF322C08AE5B4017C
:2038A000A3010E944B13AB01BC018AE50E94930217C0E80DF91D8081863439F09F5FE92F79
:2038C000F0E0E615F705ACF3A0C086E4B401A3010E944B130E94AF30DC01CB010E94B402DD
:2038E0000E946F1292C0E80DF91D8081813439F09F5FE92FF0E0E615F705ACF30DC081E4BB
:20390000B401A3010E944B130E94AF309B01AC0181E4B9010E940F0790E006C0E80DF91D6C
:203920008081823439F09F5FE92FF0E0E615F705ACF30DC082E4B401A3010E944B130E94FD
:20394000AF309B01AC0182E4B9010E940F0790E006C0E80DF91D8081813439F09F5FE92F31
:20396000F0E0E615F705ACF30DC081E4B401A3010E944B130E94AF309B01AC0181E4B9016D
:203980000E94110C90E006C0E80DF91D8081823439F09F5FE92FF0E0E615F705ACF335C0D6
:2039A00082E4B401A3010E944B130E94AF309B01AC0182E4B9010E94110C27C08CE4B40193
:2039C000A3010E944B130E94AF306115710519F0CB010E94370483E5B401A3010E944B1363
:2039E0000E94AF306115710519F0CB010E946A0480E5B401A3010E944B130E94AF306115C0
:203A0000710519F0CB010E94240387E496E06FE373E00E94FD2BC55ADF4F0FB6F894DEBF07
:203A20000FBECDBFCF91DF911F910F91FF90EF90DF90CF90BF90AF909F908F907F906F9047
:203A40005F904F903F902F900895A0900605B0900705C0900805D09009050C9405142090B2
:203A60000A0530900B0540900C0550900D050C941B14B0910E056596BFAF6597E0910F0587
:203A80006696EFAF6697F09110056796FFAF67972091110568962FAF68970C946D142090DD
:203AA000060530900705409008055090090512CCE0900A05F0900B0500910C0510910D0522
:203AC00017CCA0900E05B0900F05C0901005D09011051CCC10927005109271051092720561
:203AE0001092730510927C0510927D0510927E0510927F05109288051092890510928A058A
:203B000010928B0508958130910551F46F5F7F4F81F481E695E064E573E00E94172D08953E
:203B2000892B39F46F5F7F4F21F481E695E00E944A2D089580E090E06FEF7FEF0E94831D83
:203B4000089581E090E06FEF7FEF0E94831D0895EF92FF920F931F93CF93DF93EC01109283
:203B600068051092690510926A0510926B0510926C0510926D0510926E0510926F051092B1
:203B80007405109275051092760510927705E0902404F09025040091260410912704BE01CE
:203BA000882777FD8095982F0E94E2302DEC3CEC4CEC5DE30E9446329B01AC01C801B701B5
:203BC0000E945B0222273327A901261B370B480B590B209378053093790540937A055093B9
:203BE0007B05109280051092810510928205109283052093840530938505409386055093D9
:203C0000870557FF0FC088279927DC01821B930BA40BB50B8093840590938505A0938605F6
:203C2000B093870580918C0590918D05A0918E05B0918F05181619061A061B0684F08091B4
:203C4000380490913904AA2797FDA095BA2F80938C0590938D05A0938E05B0938F059E01B2
:203C6000D7FF03C0309521953F4FB901882777FD8095982F0E94E2302DEC3CEC4CEC5DE37C
:203C80000E94463220EC31EE44E65CE40E9446327B018C0160918C0570918D0580918E0599
:203CA00090918F050E94E2309B01AC01C801B7010E94473020E030E040E050E00E9447303F
:203CC0000E94AF308B019C0188E695E064E775E040E855E00E948408DF91CF911F910F910C
:203CE000FF90EF900895AF92BF92CF92DF92EF92FF920F931F93CF93DF93EC01109268057F
:203D00001092690510926A0510926B0510926C0510926D0510926E0510926F05E09020048A
:203D2000F09021040091220410912304BE01882777FD8095982F0E94E2302DEC3CEC4CEC74
:203D40005DE30E9446329B01AC01C801B7010E945B0290958095709561957F4F8F4F9F4F71
:203D600060937405709375058093760590937705109278051092790510927A0510927B05AB
:203D80005B016C0197FF08C0D094C094B094A094A11CB11CC11CD11CA0928005B0928105F9
:203DA000C0928205D09283051092840510928505109286051092870580918C0590918D0539
:203DC000A0918E05B0918F05181619061A061B0684F08091380490913904AA2797FDA09503
:203DE000BA2F80938C0590938D05A0938E05B0938F059E01D7FF03C0309521953F4FB901E9
:203E0000882777FD8095982F0E94E2302DEC3CEC4CEC5DE30E94463220EC31EE44E65CE487
:203E20000E9446327B018C0160918C0570918D0580918E0590918F050E94E2309B01AC01F4
:203E4000C801B7010E9447307B018C01C601B5010E94E2309B01AC01C801B7010E944730AB
:203E60000E94AF308B019C0188E695E064E775E040E855E00E948408DF91CF911F910F916A
:203E8000FF90EF90DF90CF90BF90AF9008952F923F924F925F926F927F928F929F92AF9212
:203EA000BF92CF92DF92EF92FF920F931F93CF93DF934C015B01CC24DD2433E0632E712CCA
:203EC00021E0422E512C92E0292E312C4DC3F401EC0DFD1D108181E695E0612F0E94D12C1A
:203EE000133509F441C0143554F41C3409F44BC01D3409F45CC01B3309F06BC008C01835A2
:203F0000A9F0193511F1153509F063C03FC010925A051092590581E695E064E573E00E9438
:203F2000312D87E496E065E573E051C050925A054092590581E695E064E573E00E94312DAB
:203F400087E496E068E573E042C030925A052092590581E695E064E573E00E94312D87E4CA
:203F600096E06EE573E033C070925A056092590581E695E064E573E00E94312D87E496E028
:203F800064E673E024C084E090E002C085E090E090935A058093590581E695E064E573E0CA
:203FA0000E94312D87E496E06AE673E010C087E090E090935A058093590581E695E064E5BE
:203FC00073E00E94312D87E496E060E773E00E94FD2B8091590590915A058330910509F414
:203FE00098C1843091051CF401976CF4AEC28530910509F4DEC0853091050CF401C2079714
:2040000009F0A3C259C28091650590916605059709F09BC281E695E060E070E00E94592C9B
:20402000FC01E0818E2F80538A3028F4EE2EFF2480ED9FEF0CC08E2F8154863020F0EE244C
:20404000EA94FE2C06C0EE2EFF2489EC9FEFE80EF91E81E695E061E070E00E94592CFC0112
:20406000E0818E2F80538A3028F40E2F10E0005310400BC08E2F8154863018F00FEF1FEF82
:2040800004C00E2F10E00753104081E695E062E070E00E94592CFC01E0818E2F80538A3048
:2040A00020F4CE2FD0E0E0970AC08E2F8154863018F0CFEFDFEF03C0CE2FD0E0E79781E6CD
:2040C00095E063E070E00E94592CFC01E0818E2F80538A3018F4F0E0F09709C08E2F81544B
:2040E000863018F0EFEFFFEF02C0F0E0F797902F8827FE2CEE24F29400EFF0228E299F2966
:2041000014E0CC0FDD1F1A95E1F78C2B9D2B8E2B9F2B90935C0580935B0581E695E064E034
:2041200070E00E94592CFC01E0818E2F80538A3020F48E2F90E0C09707C08E2F81548630B9
:2041400040F48E2F90E0C797892B19F42FEF3FEF02C021E030E08091590590915A05409100
:204160005B0550915C05019751F4249FC001259F900D349F900D11240E94731E09C0249F77
:20418000C001259F900D349F900D11240E94A81D81E695E064E573E00E94312D87E496E098
:2041A00066E773E00E94132B60915B0570915C0520C18091650590916605049709F0C5C1CA
:2041C00081E695E060E070E00E94592CFC01E0818E2F80538A3028F4EE2EFF2480ED9FEF4E
:2041E0000CC08E2F8154863020F0EE24EA94FE2C06C0EE2EFF2489EC9FEFE80EF91E81E665
:2042000095E061E070E00E94592CFC01E0818E2F80538A3028F40E2F10E0005310400BC012
:204220008E2F8154863018F00FEF1FEF04C00E2F10E00753104081E695E062E070E00E9477
:20424000592CFC01E0818E2F80538A3020F4CE2FD0E0E0970AC08E2F8154863018F0CFEF21
:20426000DFEF03C0CE2FD0E0E79781E695E063E070E00E94592CFC01E0818E2F80538A3044
:2042800018F4F0E0F09709C08E2F8154863018F0EFEFFFEF02C0F0E0F797902F8827FE2C1E
:2042A000EE24F294A0EFFA228E299F2974E0CC0FDD1F7A95E1F78C2B9D2B8E2B9F2B909305
:2042C0005E0580935D0581E695E064E573E00E94312D87E496E06CE773E00E94132B609136
:2042E0005D0570915E0587E496E04AE050E00E94F42A20915D0530915E05121613060CF089
:2043000024C1B901882777FD8095982F0E9480251CC18091650590916605029709F015C16C
:2043200081E695E060E070E00E94592CFC01E0818E2F80538A3020F4CE2FD0E0E0970AC040
:204340008E2F8154863018F0CFEFDFEF03C0CE2FD0E0E79781E695E061E070E00E94592CFF
:20436000FC01E0818E2F80538A3020F48E2F90E0C0970AC08E2F8154863018F08FEF9FEFD7
:2043800003C08E2F90E0C797FE0164E0EE0FFF1F6A95E1F7E82BF92BF093AE03E093AD030C
:2043A0001E161F06B4F4CF0153E0880F991F5A95E1F7EE0FFF1F8E0F9F1FAA2797FDA095D3
:2043C000BA2F80938C0590938D05A0938E05B0938F0581E695E064E573E00E94312D87E41B
:2043E00096E068E873E00E94132B6091AD037091AE0387E496E04AE050E00E94F42AA5C011
:204400008091650590916605029709F09EC081E695E060E070E00E94592CFC01E0818E2FF7
:2044200080538A3020F4CE2FD0E0E0970AC08E2F8154863018F0CFEFDFEF03C0CE2FD0E0A1
:20444000E79781E695E061E070E00E94592CFC01E0818E2F80538A3020F48E2F90E0C0970A
:204460000AC08E2F8154863018F08FEF9FEF03C08E2F90E0C79734E0CC0FDD1F3A95E1F736
:20448000C82BD92B209729F480E090E00E94D30B03C0CE010E94E50B81E695E064E573E065
:2044A0000E94312D87E496E06FE873E00E94132B87E496E0BE019FCF80916505909166057C
:2044C000029709F042C081E695E060E070E00E94592CFC01E0818E2F80538A3020F4CE2FFC
:2044E000D0E0E0970AC08E2F8154863018F0CFEFDFEF03C0CE2FD0E0E79781E695E061E0E4
:2045000070E00E94592CFC01E0818E2F80538A3018F4F0E0F09709C08E2F8154863018F000
:20452000EFEFFFEF02C0F0E0F797CE0124E0880F991F2A95E1F78E2B9F2B909360058093B8
:204540005F05019711F40E94BC058091650590916605819730F081E695E064E573E00E949E
:20456000312D0894C11CD11CCA14DB040CF4AFCCDF91CF911F910F91FF90EF90DF90CF9043
:20458000BF90AF909F908F907F906F905F904F903F902F900895FC01809190058C3090F455
:2045A00080838F5F80939005815090E0FC01EE0FFF1FE80FF91FEF56FA4F88EB9BE0928369
:2045C000818308958FEF80830895DC018C9190E0FC01EE0FFF1FE80FF91FEF56FA4F8081FC
:2045E0008F7B80838C916CE00E943B3390E0AC01440F551F480F591F440F551F440F551FF4
:2046000020E030E0C901840F951FFC01EE0FFF1FE80FF91FEF56FA4F808186FD05C02F5FED
:204620003F4F2C30310571F70895FC0120812C30B8F58181992787FD909548E850E0481B80
:20464000590B440F551F440F551F6417750784F08281992787FD909548E552E0481B590B6B
:20466000440F551F440F551F641775070CF4AB0142505040CA01AA2797FDA095BA2F880F02
:20468000991FAA1FBB1F4FB7F89430E0F901EE0FFF1FE20FF31FEF56FA4F928381834FBF50
:2046A0000895AF92BF92CF92DF92EF92FF920F931F93CF93DF93EC019B0182E060327807C3
:2046C0000CF048C077FF03C020E030E005C0653B710514F024EB30E000D000D0B901882786
:2046E00077FD8095982F2981332727FD3095E8E8AE2EB12CA21AB30AAA0CBB1CAA0CBB1C61
:20470000CC24B7FCC094DC2CEA81FF27E7FDF09528E532E02E1B3F0B220F331F220F331FE8
:20472000442737FD4095542FEDB7FEB7218332834383548320E030E040E050E004EBE02ED6
:20474000F12C012D112D0E94102C9B010F900F900F900F90CE01B9010E941523DF91CF91A7
:204760001F910F91FF90EF90DF90CF90BF90AF900895CF92DF92EF92FF921F93CF93DF9378
:20478000EC01162F7A01690188818C3008F064C0862F61E00E947E26888190E0FC01EE0F72
:2047A000FF1FE80FF91FEF56FA4F1F738081807C812B808380E292E08E199F0964E070E049
:2047C0000E944733698380E699E08C199D0964E070E00E9447336A83A8818A2F6CE00E943A
:2047E0003B33682F70E0AB01440F551F460F571F440F551F440F551F20E030E0C901840F2B
:20480000951FFC01EE0FFF1FE80FF91FEF56FA4F808186FD15C02F5F3F4F2C30310571F7C0
:2048200024C01092800082E0809381001092850010928400B19A80916F00826080936F0000
:204840008A2F90E0FC01EE0FFF1FE80FF91FEF56FA4F8081806480838881DF91CF911F9109
:20486000FF90EF90DF90CF900895672BD1F2E8CF40E252E020E639E00E94B92308951F9274
:204880000F920FB60F9211242F933F934F935F936F937F938F939F93AF93BF93EF93FF9364
:2048A0008091B50587FF05C010928500109284002BC02091B505332727FD30958091900556
:2048C00090E02817390704F58091B505992787FD9095FC01EE0FFF1FE80FF91FEF56FA4F07
:2048E000808186FF11C08091B505992787FD9095FC01EE0FFF1FE80FF91FEF56FA4F808177
:204900008F7360E00E94BD268091B5058F5F8093B5052091B505332727FD309580919005F6
:2049200090E0281739070CF04EC08091B5058C300CF049C020918400309185008091B505AC
:20494000992787FD9095FC01EE0FFF1FE80FF91FEF56FA4F81819281280F391F3093890049
:20496000209388008091B505992787FD9095FC01EE0FFF1FE80FF91FEF56FA4F808186FF8D
:204980002BC08091B505992787FD9095FC01EE0FFF1FE80FF91FEF56FA4F80818F7361E0FF
:2049A0000E94BD2619C080E49CE905C08091840090918500049690938900809388008FEF51
:2049C0008093B50509C08091840090918500049680549C4940F3EACFFF91EF91BF91AF9127
:2049E0009F918F917F916F915F914F913F912F910F900FBE0F901F901895CF92DF92EF923D
:204A0000FF920F931F936C01842FF601178216821182108273836283118610861686178603
:204A2000108A118A428B538B358B248B178B068BF18EE08E61E00E947E26F601848961E03B
:204A40000E947E26F601868961E00E947E26F601808D61E00E947E2684E090E0F601958315
:204A600084831F910F91FF90EF90DF90CF9008951F920F920FB60F9211242F933F938F93C3
:204A80009F93AF93BF938091BA059091BB05A091BC05B091BD053091BE050196A11DB11D03
:204AA000232F2D5F2D3720F02D570196A11DB11D2093BE058093BA059093BB05A093BC05DE
:204AC000B093BD058091B6059091B705A091B805B091B9050196A11DB11D8093B605909327
:204AE000B705A093B805B093B905BF91AF919F918F913F912F910F900FBE0F901F90189532
:204B00009B01AC017FB7F8948091B6059091B705A091B805B091B90566B5A89B05C06F3F23
:204B200019F00196A11DB11D7FBFBA2FA92F982F8827860F911DA11DB11D62E0880F991F74
:204B4000AA1FBB1F6A95D1F7BC012DC0FFB7F8948091B6059091B705A091B805B091B90569
:204B6000E6B5A89B05C0EF3F19F00196A11DB11DFFBFBA2FA92F982F88278E0F911DA11D3A
:204B8000B11DE2E0880F991FAA1FBB1FEA95D1F7861B970B885E9340C8F221503040404035
:204BA000504068517C4F211531054105510571F60895019739F0880F991F880F991F0297DD
:204BC0000197F1F70895789484B5826084BD84B5816084BD85B5826085BD85B5816085BD3A
:204BE000EEE6F0E0808181608083E1E8F0E01082808182608083808181608083E0E8F0E09E
:204C0000808181608083E1EBF0E0808184608083E0EBF0E0808181608083EAE7F0E0808109
:204C2000846080838081826080838081816080838081806880831092C10008951F93CF93C2
:204C4000DF93182FEB0161E00E947E26209709F44AC0CF3FD10509F449C0E12FF0E0E75069
:204C6000FF4F84918330C1F0843028F4813051F08230B1F50CC0863019F1873049F1843022
:204C800079F514C084B5806884BDC7BD33C084B5806284BDC8BD2EC080918000806880939E
:204CA0008000D0938900C093880024C080918000806280938000D0938B00C0938A001AC01E
:204CC0008091B00080688093B000C093B30012C08091B00080628093B000C093B4000AC059
:204CE000C038D1051CF4812F60E002C0812F61E00E94BD26DF91CF911F910895CF93DF93BD
:204D0000482F50E0CA018B519F4FFC0134914F525F4FFA018491882369F190E0880F991F72
:204D2000FC01ED54FF4FA591B491FC01E354FF4FC591D491662351F42FB7F8948C91932F10
:204D4000909589238C93888189230BC0623061F42FB7F8948C91932F909589238C938881B2
:204D6000832B88832FBF06C09FB7F8948C91832B8C939FBFDF91CF910895482F50E0CA01BD
:204D800087509F4FFC012491CA018B519F4FFC0194914F525F4FFA013491332309F440C083
:204DA000222351F1233071F0243028F42130A1F0223011F514C02630B1F02730C1F02430E7
:204DC000D9F404C0809180008F7703C0809180008F7D8093800010C084B58F7702C084B5AE
:204DE0008F7D84BD09C08091B0008F7703C08091B0008F7D8093B000E32FF0E0EE0FFF1F86
:204E0000E354FF4FA591B4912FB7F894662321F48C919095892302C08C91892B8C932FBFF4
:204E20000895682F70E0CB0187509F4FFC012491CB018B519F4FFC0144916F527F4FFB01B8
:204E40009491992319F420E030E03CC0222351F1233071F0243028F42130A1F0223011F573
:204E600014C02630B1F02730C1F02430D9F404C0809180008F7703C0809180008F7D809370
:204E8000800010C084B58F7702C084B58F7D84BD09C08091B0008F7703C08091B0008F7D1B
:204EA0008093B000892F90E0880F991F89539F4FFC01A591B4918C9120E030E0842311F0A1
:204EC00021E030E0C901089508951F920F920FB60F9211242F933F934F938F939F93EF9384
:204EE000FF938091C00082FD1DC04091C6002091FF05309100062F5F3F4F2F733070809171
:204F00000106909102062817390771F0E091FF05F0910006E154FA4F4083309300062093C8
:204F2000FF0502C08091C600FF91EF919F918F914F913F912F910F900FBE0F901F9018959D
:204F4000E0915306F0915406E05CFF4F8191919120813181821B930B8F739070892B11F0A9
:204F60000E94642708951F920F920FB60F9211242F933F938F939F93EF93FF932091430684
:204F80003091440680914506909146062817390731F48091C1008F7D8093C10014C0E091A2
:204FA0004506F0914606ED5FF94F2081809145069091460601968F739070909346068093C0
:204FC00045062093C600FF91EF919F918F913F912F910F900FBE0F901F901895AF92BF9224
:204FE000DF92EF92FF920F931F93CF93DF93EC017A018B01DD24403081EE580780E0680704
:2050000080E0780711F0DD24D39491E0A92EB12CEC89FD89DD2069F0C50108A002C0880F0B
:20502000991F0A94E2F7808360E079E08DE390E005C0108260E874E88EE190E0A8019701AA
:205040000E945A332150304040405040569547953795279580E12030380720F0DD2011F0E3
:20506000DD24D6CFE889F9893083EA89FB89208319A2EE89FF89408121E030E0C9010C8C5C
:2050800002C0880F991F0A94E2F7482B4083EE89FF894081C9010D8C02C0880F991F0A9480
:2050A000E2F7482B4083EE89FF894081C9010E8C02C0880F991F0A94E2F7482B4083EE8988
:2050C000FF8980810F8C02C0220F331F0A94E2F7209528232083DF91CF911F910F91FF909E
:2050E000EF90DF90BF90AF900895DC011C96ED91FC911D97E05CFF4F219131918081918138
:20510000281B390B2F733070C9010895DC011C96ED91FC911D97E05CFF4F20813181E05400
:20512000F040DF01AE5BBF4F8D919C9111972817390719F42FEF3FEF07C08D919C91E80F74
:20514000F91F8081282F30E0C9010895DC011C96ED91FC911D97E05CFF4F20813181E05409
:20516000F040DF01AE5BBF4F8D919C9111972817390719F42FEF3FEF10C08D919C9111977A
:20518000E80FF91F20818D919C91119701968F73907011969C938E9330E0C9010895DC0188
:2051A00091968C919197882339F05496ED91FC915597808186FFF9CF91961C920895CF93AC
:2051C000DF93EC01EE85FF85E05CFF4F20813181E054F0402F5F3F4F2F733070DF01AE5BF1
:2051E000BF4F8D919C91119728173907D1F3E05CFF4F80819181E054F040E80FF91F608378
:20520000EE85FF85E05CFF4F31832083EE89FF89208181E090E00F8C02C0880F991F0A94FB
:20522000E2F7282B208381E089A3EC89FD8980818064808381E090E0DF91CF91089510924F
:205240004A061092490688EE93E0A0E0B0E080934B0690934C06A0934D06B0934E0689EBAA
:2052600093E090934806809347068FEB95E0909354068093530683E096E0909356068093A7
:20528000550685EC90E0909358068093570684EC90E090935A068093590680EC90E090930D
:2052A0005C0680935B0681EC90E090935E0680935D0682EC90E09093600680935F0686ECED
:2052C00090E0909362068093610684E08093630683E08093640687E08093650685E080933C
:2052E000660681E0809367060895CF93DF930E94E3250E94520DC0EAD7E20E944F0D20972D
:20530000E1F30E94A027F9CFCF92DF92EF92FF920F931F93CF93DF937C016B018A01C0E068
:20532000D0E00FC0D6016D916D01D701ED91FC910190F081E02DC7010995C80FD91F015033
:2053400010400115110571F7CE01DF91CF911F910F91FF90EF90DF90CF900895EF92FF92EF
:205360000F931F938C01DC01ED91FC910190F081E02D6DE009957C01D801ED91FC91019078
:20538000F081E02DC8016AE009959C012E0D3F1DC9011F910F91FF90EF900895CF93DF9311
:2053A000EC016115710519F420E030E00FC0DB010D900020E9F71197A61BB70BE881F981A1
:2053C0000280F381E02DAD0109959C01C901DF91CF9108954F925F927F928F929F92AF9234
:2053E000BF92CF92DF92EF92FF920F931F93DF93CF93CDB7DEB7A1970FB6F894DEBF0FBE44
:20540000CDBF2C01742ECB01223008F42AE019A231E2C32ED12CCC0EDD1E822E9924AA2441
:20542000BB24672D752FA50194010E945A3379018A01C801B701A50194010E941C33472DC5
:20544000461B0894C108D1084A3014F4405D01C0495CF6014083E114F1040105110521F057
:205460007E2C5F2DC801DDCFC201B6010E94CE29A1960FB6F894DEBF0FBECDBFCF91DF9120
:205480001F910F91FF90EF90DF90CF90BF90AF909F908F907F905F904F900895DC01211577
:2054A000310541F4ED91FC910190F081E02D642F099508950E94EA290895EF92FF920F9393
:2054C0001F939A01E62EFF2400E010E0B801A7010E944E2A1F910F91FF90EF900895CF92A1
:2054E000DF92EF92FF920F931F936C01E62E9A01FF2400E010E0B801A7010E944E2A8C01BE
:20550000C6010E94AE29080F191FC8011F910F91FF90EF90DF90CF900895CF92DF92EF9217
:20552000FF920F931F93CF93DF93EC016A017B012115310541F4E881F9810190F081E02D4B
:20554000642F09951FC02A303105D1F477FF17C0E881F9810190F081E02D6DE209958C012D
:2055600044275527BA014C195D096E097F09CE012AE00E94EA299801280F391F04C02AE03B
:205580000E94EA299C01C901DF91CF911F910F91FF90EF90DF90CF900895EF92FF920F93A2
:2055A0001F937C010E948D2A8C01C7010E94AE299C01200F311FC9011F910F91FF90EF9051
:2055C0000895EF92FF920F931F937B019A010027F7FC0095102FB801A7010E948D2A1F9159
:2055E0000F91FF90EF900895CF92DF92EF92FF920F931F936C017B019A010027F7FC0095F5
:20560000102FB801A7010E948D2A8C01C6010E94AE29080F191FC8011F910F91FF90EF904E
:20562000DF90CF9008950E94CE2908957F928F929F92AF92BF92CF92DF92EF92FF920F934E
:205640001F93CF93DF934C017A018B01722ECB01BA01A80197010E940033882321F0C401B2
:2056600066E973E021C0C0E0D0E057016801E894D7F8C601B5012FEF3FEF4FE75FE70E9464
:205680000033882351F4C601B5012FEF3FEF4FE75FE70E944030181614F0C1E0D0E0219755
:2056A00039F0C4016AE973E00E94CE29EC0193C0C801B7012FEF3FEF4FE75FE40E943B3228
:2056C000181654F0C801B7012FEF3FEF4FE75FEC0E944030882324F4C4016EE973E0E4CF13
:2056E000C801B70120E030E040E050E00E94403087FD03C0C0E0D0E00EC0D401ED91FC9172
:205700000190F081E02DC4016DE20995EC0117FB109517F9109520E030E040E05FE3DD24FC
:205720000BC0CA01B90120E030E040E251E40E9447309B01AC01D394D71498F3C801B701F2
:205740000E94672F5B016C010E94B4307B018C01C401B801A7012AE030E00E944E2AC80F88
:20576000D91F772039F0C40162EA73E00E94CE29C80FD91FC801B7010E94E0309B01AC0129
:20578000C601B5010E94662F24C020E030E040E251E40E9446327B018C010E94AF305B010A
:2057A0006C01CC24B7FCC094DC2CC401B601A5012AE030E00E948D2AC80FD91FC601B5019C
:2057C0000E94E2309B01AC01C801B7010E94662F7A947720D1F6CE01DF91CF911F910F91B9
:2057E000FF90EF90DF90CF90BF90AF909F908F907F9008950E94162B0895EF92FF920F9311
:205800001F937C010E94CE298C01C7010E94AE29080F191FC8011F910F91FF90EF900895DF
:205820002F923F924F925F926F927F928F929F92AF92BF92CF92DF92EF92FF920F931F93D6
:20584000DF93CF93CDB7DEB73B014C0119012A016D897E898F89988D6A197B098C099D0911
:20586000621A730A840A950AA40193010E941C33E218F30804091509A80197010E947C3326
:205880002A0D3B1D4C1D5D1DB901CA01CF91DF911F910F91FF90EF90DF90CF90BF90AF9087
:2058A0009F908F907F906F905F904F903F902F900895FC019B01848195816817790728F4C4
:2058C000608171816115710529F41092690669E676E002C0620F731FCB0108950F931F93B4
:2058E000CF93DF93EC018B016F5F7F4F888199810E94852E009711F480E005C0998388835F
:205900001B830A8381E0DF91CF911F910F910895CF93DF93EC0188819981892B29F08A8182
:205920009B818617970760F4CE010E946E2C882341F08C819D81892B19F4E881F981108274
:2059400081E0DF91CF910895EF92FF920F931F93CF93DF93EC017B016C817D81E114F10401
:20596000C1F04115510599F08A01060F171FB8010E94882C882369F0888199812C813D81CA
:20598000820F931FB7010E9454021D830C8381E001C080E0DF91CF911F910F91FF90EF9035
:2059A0000895DF93CF9300D0CDB7DEB769831A82BE016F5F7F4F41E050E00E94A42C0F9048
:2059C0000F90CF91DF910895CF93DF93EC0188819981009711F00E94ED2D198218821D82AF
:2059E0001C821B821A82DF91CF910895EF92FF920F931F93CF93DF93EC017B018A01BA017A
:205A00000E94882C882321F4CE010E94E42C07C01D830C8388819981B7010E945402CE0157
:205A2000DF91CF911F910F91FF90EF900895CF93DF93EC01198218821B821A821D821C822F
:205A40001E826115710551F0DB010D900020E9F71197A61BB70BAD010E94F62CDF91CF9193
:205A600008950F931F93182F092F6115710559F0DB010D900020E9F71197A61BB70BAD012F
:205A80000E94F62C02C00E94E42C812F902F1F910F910895FC01808191810E94ED2D089509
:205AA0000F931F93CF93DF93BC018230910510F462E070E0E0916C06F0916D0640E050E0FC
:205AC000A0E0B0E024C08081918186179707D0F08617970771F482819381109729F01396A4
:205AE0009C938E9312972CC090936D0680936C0627C04115510519F08417950718F48D0139
:205B0000AC01EF01DF01828193819C01F9013097D1F641155105F9F0CA01861B970B843075
:205B2000910580F48A819B810115110521F0F8019383828304C090936D0680936C06FE0105
:205B4000329645C0FE01E80FF91F619371930297998388833CC080916A0690916B06892BEF
:205B600041F48091B1039091B20390936B0680936A064091B3035091B4034115510541F43E
:205B80004DB75EB78091AF039091B003481B590B20916A0630916B0624173507B0F4CA0155
:205BA000821B930B8617970780F0AB014E5F5F4F8417950750F0420F531F50936B06409397
:205BC0006A06F9016193719302C0E0E0F0E0CF01DF91CF911F910F910895CF93DF939C0113
:205BE000009709F48FC0EC0122971B821A8260916C0670916D066115710581F48881998188
:205C0000820F931F20916A0630916B062817390739F5D0936B06C0936A0674C0DB0140E07A
:205C200050E0AC17BD0708F1BB83AA83FE0121913191E20FF31FAE17BF0779F48D919C9190
:205C40001197280F391F2E5F3F4F3983288312968D919C9113979B838A834115510571F4B2
:205C6000D0936D06C0936C064DC012968D919C911397AD01009711F0DC01D3CFDA01139696
:205C8000DC93CE931297FA0121913191E20FF31FCE17DF0769F488819981280F391F2E5FB2
:205CA0003F4FFA01318320838A819B8193838283E0E0F0E0DB0112968D919C911397009722
:205CC00019F0BC01FD01F6CFAB014E5F5F4FDB018D919C91840F951F20916A0630916B0673
:205CE0002817390779F4309729F410926D0610926C0602C0138212824250504050936B064A
:205D000040936A06DF91CF9108956F927F928F929F92AF92BF92CF92DF92EF92FF920F9357
:205D20001F93CF93DF938C01009729F4CB010E94502D8C01BBC08EEFE82E8FEFF82EE00E84
:205D4000F11E4801860E971E8E149F0408F4ACC0D7014D915C91119746175707B8F04530D2
:205D6000510508F4A3C0CA0104978617970708F49DC042505040461B570BF40141935193E2
:205D80006D937C93CF010E94ED2D90C05B01A41AB50A3801640E751EA0916C06B0916D06AA
:205DA000E0E0F0E0CC24DD2447C0A615B705A9F5CD91DC911197CE0102968A159B0568F1D4
:205DC000CE018A199B09029612962C91129713963C91059758F0F40122833383CA19DB0996
:205DE000D183C083D7016D937C9309C04E5F5F4F4C0F5D1FF70151834083C901FC01C114FF
:205E0000D10431F0D6011396FC93EE9312974EC0F0936D06E0936C0649C08D919C9111976E
:205E2000E817F90708F4FC016D0112968C91129713969C919C01D901109709F0B6CF80910B
:205E40006A0690916B0686159705E9F4E617F707D0F42091B3033091B4032115310541F4ED
:205E60002DB73EB78091AF039091B003281B390B82169306C8F490926B0680926A06F70131
:205E80007183608313C0CB010E94502DEC01009759F0D7014D915C91B8010E944B02C8018C
:205EA0000E94ED2D8E0102C000E010E0C801DF91CF911F910F91FF90EF90DF90CF90BF90F1
:205EC000AF909F908F907F906F9008955058BB27AA270ED06EC22ED230F033D220F031F4C7
:205EE0009F3F11F41EF4FEC10EF4E095E7FBC9C1E92F81D280F3BA17620773078407950752
:205F000018F071F49EF5B0C20EF4E0950B2EBA2FA02D0B01B90190010C01CA01A0011124A4
:205F2000FF27591B99F0593F50F4503E68F11A16F040A22F232F342F4427585FF3CF4695D6
:205F400037952795A795F0405395C9F77EF41F16BA0B620B730B840BBAF09150A1F0FF0F95
:205F6000BB1F661F771F881FC2F70EC0BA0F621F731F841F48F4879577956795B795F79547
:205F80009E3F08F0B3CF9395880F08F09927EE0F979587950895CED158F080E891E009F494
:205FA0009EEFCFD128F040E851E059F45EEF09C099C15AC2E92FE0781ED268F3092E052A49
:205FC000C1F3261737074807590738F00E2E07F8E02569F0E025E0640AC0EF6307F800942A
:205FE00007FADB01B9019D01DC01CA01AD01EF935DD0DFD10AD05F91552331F02BED3FE01D
:2060000049E450FD49EC63CF0895DF93DD27B92FBF7740E85FE31616170648075B0710F406
:20602000D92F2DD29F938F937F936F93E6D2E8E6F0E05BD1BED12F913F914F915F9132D27C
:20604000DD2349F09058A2EA2AED3FE049EC5FE3D0785D274DDFDF91ACC1EFD180F09F370B
:2060600040F491110EF401C260E070E080E89FE3089526F01B16611D711D811D08C122C1D1
:20608000DCD008F481E0089564D1E395A3C10CD090C157D140F04ED130F021F45F3F19F0C9
:2060A000F0C05111E2C11EC1A6D198F39923C9F35523B1F3951B550BBB27AA276217730700
:2060C000840738F09F5F5F4F220F331F441FAA1FA9F333D00E2E3AF0E0E830D09150504074
:2060E000E695001CCAF729D0FE2F27D0660F771F881FBB1F261737074807AB07B0E809F092
:20610000BB0B802DBF01FF2793585F4F2AF09E3F510568F0B6C0A9C15F3FECF3983EDCF3E6
:20612000869577956795B795F7959F5FC9F7880F911D9695879597F90895E1E0660F771F21
:20614000881FBB1F621773078407BA0720F0621B730B840BBA0BEE1F88F7E095089504D0AE
:206160006894B11182C108954ED188F09F5790F0B92F9927B751A0F0D1F0660F771F881FC1
:20618000991F1AF0BA95C9F712C0B13081F06CD1B1E0089569C1672F782F8827B85F39F049
:2061A000B93FCCF3869577956795B395D9F73EF490958095709561957F4F8F4F9F4F08954F
:2061C000E89409C097FB3EF490958095709561957F4F8F4F9F4F9923A9F0F92F96E9BB2709
:2061E0009395F695879577956795B795F111F8CFFAF4BB0F11F460FF1BC06F5F7F4F8F4F42
:206200009F4F16C0882311F096E911C0772321F09EE8872F762F05C0662371F096E8862F50
:2062200070E060E02AF09A95660F771F881FDAF7880F9695879597F90895990F0008550FE3
:20624000AA0BE0E8FEEF16161706E807F907C0F012161306E407F50798F0621B730B840BB2
:20626000950B39F40A2661F0232B242B252B21F408950A2609F4A140A6958FEF811D811D2E
:20628000089597F99F6780E870E060E00895882371F4772321F09850872B762F07C06623EC
:2062A00011F499270DC09051862B70E060E02AF09A95660F771F881FDAF7880F9695879580
:2062C00097F908959F3F49F0915028F4869577956795B7959F5F80389F4F880F969587958C
:2062E00097F908959FEF80EC0895DF93CF931F930F93FF92EF92DF927B018C01689405C065
:20630000DA2EEF01CFD0FE01E894A5912591359145915591AEF3EF01EBDDFE019701A80164
:20632000DA9479F7DF90EF90FF900F911F91CF91DF91089500240A9416161706180609060D
:20634000089500240A9412161306140605060895C9CF59D0E8F3E894EFEFBB273FE048ECB0
:206360005FE76B3D73078407950708F1FF279F57B25A6A4D7F40894CF04032F4BE55654212
:20638000704F8643FF4F0894EE1F915030F0BB0F661F771F881FFF1FEBCF9EE7882332F0C7
:2063A000BB0F661F771F881F9A95C1F79395E09589CF092E0394000C11F4882352F0BB0FDF
:2063C00040F4BF2B11F460FF04C06F5F7F4F8F4F9F4F0895EF93E0FF06C0A2EA2AED3FE089
:2063E00049EC5FEB85DDE5DF0F90039401FC9058E5E9F0E010C157FD9058440F551F59F022
:206400005F3F71F04795880F97FB991F61F09F3F79F087950895121613061406551FF2CFDF
:206420004695F1DF08C0161617061806991FF1CF86957105610508940895E5DFA0F0BEE7E1
:20644000B91788F4BB279F3860F41616B11D672F782F8827985FF7CF869577956795B11D4F
:2064600093959639C8F30895E894BB2766277727CB0197F90895E1DE08F48FEF08959B01D9
:20648000AC0160E070E080E89FE301CE0BD091CF51DF28F056DF18F0952309F0F2CE22CFE4
:2064A0001124E3CFA8DFA0F3959FD1F3950F50E0551F629FF001729FBB27F00DB11D639FE9
:2064C000AA27F00DB11DAA1F649F6627B00DA11D661F829F2227B00DA11D621F739FB00D92
:2064E000A11D621F839FA00D611D221F749F3327A00D611D231F849F600D211D822F762FD1
:206500006A2F11249F5750408AF0E1F088234AF0EE0FFF1FBB1F661F771F881F91505040CF
:20652000A9F79E3F510570F0ACCE9FCF5F3FECF3983EDCF3869577956795B795F795E795A7
:206540009F5FC1F7FE2B880F911D9695879597F908959F93FEDE0F9007FCEE5F3BCF11F497
:206560000EF4C0CEAFCE4FDFD0F39923D9F3CEF39F57550B87FF48D056959795B0E020F425
:20658000660F771F881FBB1F1F930F9300249001A0018001F001A0E80E0F1F1F0A1E511DDA
:2065A000601B710B8009B50B48F4600F711F801DB51F0E1B1F0B0A0A510907C02E0F3F1FCC
:2065C0004A1F0E0F1F1F0A1E511D660F771F881FBB1FA695F795E795F8F60617170708065B
:2065E0005B07211D311D411D0F911F91B901842F9158880F9695879508959B01AC0146CFD0
:206600001CDE880B990B089591505040660F771F881FD2F708959F938F937F936F93FF9329
:20662000EF939B01AC0132DFEF91FF915EDE2F913F914F915F912ACF629FD001739FF00104
:20664000829FE00DF11D649FE00DF11D929FF00D839FF00D749FF00D659FF00D9927729FF1
:20666000B00DE11DF91F639FB00DE11DF91FBD01CF0111240895991B79E004C0991F9617DC
:2066800008F0961B881F7A95C9F78095089597FB092E07260AD077FD04D049D006D0002002
:2066A0001AF4709561957F4F0895F6F7909581959F4F0895A1E21A2EAA1BBB1BFD010DC082
:2066C000AA1FBB1FEE1FFF1FA217B307E407F50720F0A21BB30BE40BF50B661F771F881F56
:2066E000991F1A9469F760957095809590959B01AC01BD01CF01089597FB092E05260ED05A
:2067000057FD04D0D7DF0AD0001C38F450954095309521953F4F4F4F5F4F0895F6F79095BB
:206720008095709561957F4F8F4F9F4F0895AA1BBB1B51E107C0AA1FBB1FA617B70710F060
:20674000A61BB70B881F991F5A95A9F780959095BC01CD010895EE0FFF1F0590F491E02D24
:206760000994911106C0803219F089508550D0F708959927882708952F923F924F925F92D7
:206780006F927F928F929F92AF92BF92CF92DF92EF92FF920F931F93CF93DF93CDB7DEB7DE
:2067A000CA1BDB0B0FB6F894DEBF0FBECDBF09942A88398848885F846E847D848C849B84E2
:2067C000AA84B984C884DF80EE80FD800C811B81AA81B981CE0FD11D0FB6F894DEBF0FBEA4
:2067E000CDBFED01089511E0C0E5D1E004C0FE010E94AD332296C235D107C9F7F894FFCF55
:206800005B002C005D004730312058302E312046383030004D3033204C323535004D30357D
:206820000047303120582D373020463830300047303120592D302E31204638303000473054
:20684000312058302E312046383030204C32353500473031205834302046353030204C32DD
:2068600035350047303120592D34302046353030204C3235350047303120582D34302046E2
:20688000353030204C32353500473031205934302046353030204C323535004732310047E2
:2068A00039310047393200473031205831302046323030300047303120582D3130204632CD
:2068C00030303000473031205931302046323030300047303120592D3130204632303030A7
:2068E00000243035206D30004D3033204C32303000473034205032303000243035206D31B0
:2069000000243035206D3200243035206D330047303120582D343520593435204638303050
:206920000047303220493230204A2D32302046353030204C3235350047393000473031206F
